{
  "_format": "hh-sol-artifact-1",
  "contractName": "StakingVault",
  "sourceName": "contracts/StakingVault.sol",
  "abi": [
    {
      "inputs": [
        {
          "internalType": "address",
          "name": "_stakeToken",
          "type": "address"
        },
        {
          "internalType": "address",
          "name": "_rewardToken",
          "type": "address"
        },
        {
          "internalType": "uint256",
          "name": "_initialAprBps",
          "type": "uint256"
        }
      ],
      "stateMutability": "nonpayable",
      "type": "constructor"
    },
    {
      "anonymous": false,
      "inputs": [
        {
          "indexed": false,
          "internalType": "uint256",
          "name": "newAprBps",
          "type": "uint256"
        }
      ],
      "name": "AprUpdated",
      "type": "event"
    },
    {
      "anonymous": false,
      "inputs": [
        {
          "indexed": true,
          "internalType": "address",
          "name": "previousOwner",
          "type": "address"
        },
        {
          "indexed": true,
          "internalType": "address",
          "name": "newOwner",
          "type": "address"
        }
      ],
      "name": "OwnershipTransferred",
      "type": "event"
    },
    {
      "anonymous": false,
      "inputs": [
        {
          "indexed": true,
          "internalType": "address",
          "name": "user",
          "type": "address"
        },
        {
          "indexed": false,
          "internalType": "uint256",
          "name": "amount",
          "type": "uint256"
        }
      ],
      "name": "RewardsClaimed",
      "type": "event"
    },
    {
      "anonymous": false,
      "inputs": [
        {
          "indexed": true,
          "internalType": "address",
          "name": "funder",
          "type": "address"
        },
        {
          "indexed": false,
          "internalType": "uint256",
          "name": "amount",
          "type": "uint256"
        }
      ],
      "name": "RewardsFunded",
      "type": "event"
    },
    {
      "anonymous": false,
      "inputs": [
        {
          "indexed": true,
          "internalType": "address",
          "name": "user",
          "type": "address"
        },
        {
          "indexed": false,
          "internalType": "uint256",
          "name": "amount",
          "type": "uint256"
        }
      ],
      "name": "Staked",
      "type": "event"
    },
    {
      "anonymous": false,
      "inputs": [
        {
          "indexed": true,
          "internalType": "address",
          "name": "user",
          "type": "address"
        },
        {
          "indexed": false,
          "internalType": "uint256",
          "name": "amount",
          "type": "uint256"
        }
      ],
      "name": "Unstaked",
      "type": "event"
    },
    {
      "inputs": [],
      "name": "BPS_DENOM",
      "outputs": [
        {
          "internalType": "uint256",
          "name": "",
          "type": "uint256"
        }
      ],
      "stateMutability": "view",
      "type": "function"
    },
    {
      "inputs": [],
      "name": "SECONDS_PER_YEAR",
      "outputs": [
        {
          "internalType": "uint256",
          "name": "",
          "type": "uint256"
        }
      ],
      "stateMutability": "view",
      "type": "function"
    },
    {
      "inputs": [],
      "name": "aprBps",
      "outputs": [
        {
          "internalType": "uint256",
          "name": "",
          "type": "uint256"
        }
      ],
      "stateMutability": "view",
      "type": "function"
    },
    {
      "inputs": [],
      "name": "claimRewards",
      "outputs": [],
      "stateMutability": "nonpayable",
      "type": "function"
    },
    {
      "inputs": [
        {
          "internalType": "address",
          "name": "user",
          "type": "address"
        }
      ],
      "name": "earned",
      "outputs": [
        {
          "internalType": "uint256",
          "name": "",
          "type": "uint256"
        }
      ],
      "stateMutability": "view",
      "type": "function"
    },
    {
      "inputs": [
        {
          "internalType": "uint256",
          "name": "amount",
          "type": "uint256"
        }
      ],
      "name": "fundRewards",
      "outputs": [],
      "stateMutability": "nonpayable",
      "type": "function"
    },
    {
      "inputs": [
        {
          "internalType": "address",
          "name": "user",
          "type": "address"
        }
      ],
      "name": "getUserInfo",
      "outputs": [
        {
          "internalType": "uint256",
          "name": "stakedAmount",
          "type": "uint256"
        },
        {
          "internalType": "uint256",
          "name": "pendingRewards",
          "type": "uint256"
        }
      ],
      "stateMutability": "view",
      "type": "function"
    },
    {
      "inputs": [],
      "name": "owner",
      "outputs": [
        {
          "internalType": "address",
          "name": "",
          "type": "address"
        }
      ],
      "stateMutability": "view",
      "type": "function"
    },
    {
      "inputs": [],
      "name": "renounceOwnership",
      "outputs": [],
      "stateMutability": "nonpayable",
      "type": "function"
    },
    {
      "inputs": [],
      "name": "rewardToken",
      "outputs": [
        {
          "internalType": "contract IERC20",
          "name": "",
          "type": "address"
        }
      ],
      "stateMutability": "view",
      "type": "function"
    },
    {
      "inputs": [
        {
          "internalType": "uint256",
          "name": "newAprBps",
          "type": "uint256"
        }
      ],
      "name": "setApr",
      "outputs": [],
      "stateMutability": "nonpayable",
      "type": "function"
    },
    {
      "inputs": [
        {
          "internalType": "uint256",
          "name": "amount",
          "type": "uint256"
        }
      ],
      "name": "stake",
      "outputs": [],
      "stateMutability": "nonpayable",
      "type": "function"
    },
    {
      "inputs": [],
      "name": "stakeToken",
      "outputs": [
        {
          "internalType": "contract IERC20",
          "name": "",
          "type": "address"
        }
      ],
      "stateMutability": "view",
      "type": "function"
    },
    {
      "inputs": [],
      "name": "totalStaked",
      "outputs": [
        {
          "internalType": "uint256",
          "name": "",
          "type": "uint256"
        }
      ],
      "stateMutability": "view",
      "type": "function"
    },
    {
      "inputs": [
        {
          "internalType": "address",
          "name": "newOwner",
          "type": "address"
        }
      ],
      "name": "transferOwnership",
      "outputs": [],
      "stateMutability": "nonpayable",
      "type": "function"
    },
    {
      "inputs": [
        {
          "internalType": "uint256",
          "name": "amount",
          "type": "uint256"
        }
      ],
      "name": "unstake",
      "outputs": [],
      "stateMutability": "nonpayable",
      "type": "function"
    },
    {
      "inputs": [
        {
          "internalType": "address",
          "name": "",
          "type": "address"
        }
      ],
      "name": "users",
      "outputs": [
        {
          "internalType": "uint256",
          "name": "stakedAmount",
          "type": "uint256"
        },
        {
          "internalType": "uint256",
          "name": "rewardDebt",
          "type": "uint256"
        },
        {
          "internalType": "uint256",
          "name": "lastUpdateTime",
          "type": "uint256"
        }
      ],
      "stateMutability": "view",
      "type": "function"
    }
  ],
  "bytecode": "0x60c06040523480156200001157600080fd5b5060405162001cfb38038062001cfb8339818101604052810190620000379190620002f4565b620000576200004b6200018360201b60201c565b6200018b60201b60201c565b60018081905550600073ffffffffffffffffffffffffffffffffffffffff168373ffffffffffffffffffffffffffffffffffffffff1614158015620000c95750600073ffffffffffffffffffffffffffffffffffffffff168273ffffffffffffffffffffffffffffffffffffffff1614155b6200010b576040517f08c379a00000000000000000000000000000000000000000000000000000000081526004016200010290620003b1565b60405180910390fd5b8273ffffffffffffffffffffffffffffffffffffffff1660808173ffffffffffffffffffffffffffffffffffffffff16815250508173ffffffffffffffffffffffffffffffffffffffff1660a08173ffffffffffffffffffffffffffffffffffffffff168152505080600281905550505050620003d3565b600033905090565b60008060009054906101000a900473ffffffffffffffffffffffffffffffffffffffff169050816000806101000a81548173ffffffffffffffffffffffffffffffffffffffff021916908373ffffffffffffffffffffffffffffffffffffffff1602179055508173ffffffffffffffffffffffffffffffffffffffff168173ffffffffffffffffffffffffffffffffffffffff167f8be0079c531659141344cd1fd0a4f28419497f9722a3daafe3b4186f6b6457e060405160405180910390a35050565b600080fd5b600073ffffffffffffffffffffffffffffffffffffffff82169050919050565b6000620002818262000254565b9050919050565b620002938162000274565b81146200029f57600080fd5b50565b600081519050620002b38162000288565b92915050565b6000819050919050565b620002ce81620002b9565b8114620002da57600080fd5b50565b600081519050620002ee81620002c3565b92915050565b60008060006060848603121562000310576200030f6200024f565b5b60006200032086828701620002a2565b93505060206200033386828701620002a2565b92505060406200034686828701620002dd565b9150509250925092565b600082825260208201905092915050565b7f5a65726f20616464726573730000000000000000000000000000000000000000600082015250565b600062000399600c8362000350565b9150620003a68262000361565b602082019050919050565b60006020820190508181036000830152620003cc816200038a565b9050919050565b60805160a0516118df6200041c6000396000818161054f0152818161078001528181610a1a0152610dfd015260008181610456015281816108b70152610b9e01526118df6000f3fe608060405234801561001057600080fd5b506004361061010a5760003560e01c8063715018a6116100a2578063a694fc3a11610071578063a694fc3a1461026e578063a87430ba1461028a578063e6a69ab8146102bc578063f2fde38b146102da578063f7c618c1146102f65761010a565b8063715018a61461020c578063817b1cd2146102165780638da5cb5b1461023457806393707a19146102525761010a565b806351ed6a30116100de57806351ed6a301461018357806359cee29c146101a15780636386c1c7146101bd5780636637e38c146101ee5761010a565b80628cc2621461010f57806325ac1df21461013f5780632e17de781461015d578063372500ab14610179575b600080fd5b61012960048036038101906101249190611156565b610314565b604051610136919061119c565b60405180910390f35b610147610373565b604051610154919061119c565b60405180910390f35b610177600480360381019061017291906111e3565b610379565b005b6101816106d4565b005b61018b6108b5565b604051610198919061126f565b60405180910390f35b6101bb60048036038101906101b691906111e3565b6108d9565b005b6101d760048036038101906101d29190611156565b610922565b6040516101e592919061128a565b60405180910390f35b6101f66109c7565b604051610203919061119c565b60405180910390f35b6102146109cd565b005b61021e6109e1565b60405161022b919061119c565b60405180910390f35b61023c6109e7565b60405161024991906112c2565b60405180910390f35b61026c600480360381019061026791906111e3565b610a10565b005b610288600480360381019061028391906111e3565b610b48565b005b6102a4600480360381019061029f9190611156565b610d46565b6040516102b3939291906112dd565b60405180910390f35b6102c4610d70565b6040516102d1919061119c565b60405180910390f35b6102f460048036038101906102ef9190611156565b610d78565b005b6102fe610dfb565b60405161030b919061126f565b60405180910390f35b600061031f82610e1f565b600460008473ffffffffffffffffffffffffffffffffffffffff1673ffffffffffffffffffffffffffffffffffffffff1681526020019081526020016000206001015461036c9190611343565b9050919050565b60025481565b610381610ed0565b6000600460003373ffffffffffffffffffffffffffffffffffffffff1673ffffffffffffffffffffffffffffffffffffffff16815260200190815260200160002090506000821180156103d8575080600001548211155b610417576040517f08c379a000000000000000000000000000000000000000000000000000000000815260040161040e906113d4565b60405180910390fd5b61042033610f1f565b8181600001600082825461043491906113f4565b92505081905550816003600082825461044d91906113f4565b925050819055507f000000000000000000000000000000000000000000000000000000000000000073ffffffffffffffffffffffffffffffffffffffff1663a9059cbb33846040518363ffffffff1660e01b81526004016104af929190611428565b6020604051808303816000875af11580156104ce573d6000803e3d6000fd5b505050506040513d601f19601f820116820180604052508101906104f29190611489565b610531576040517f08c379a000000000000000000000000000000000000000000000000000000000815260040161052890611502565b60405180910390fd5b600081600101549050600081111561067957600082600101819055507f000000000000000000000000000000000000000000000000000000000000000073ffffffffffffffffffffffffffffffffffffffff1663a9059cbb33836040518363ffffffff1660e01b81526004016105a8929190611428565b6020604051808303816000875af11580156105c7573d6000803e3d6000fd5b505050506040513d601f19601f820116820180604052508101906105eb9190611489565b61062a576040517f08c379a00000000000000000000000000000000000000000000000000000000081526004016106219061156e565b60405180910390fd5b3373ffffffffffffffffffffffffffffffffffffffff167ffc30cddea38e2bf4d6ea7d3f9ed3b6ad7f176419f4963bd81318067a4aee73fe82604051610670919061119c565b60405180910390a25b3373ffffffffffffffffffffffffffffffffffffffff167f0f5bb82176feb1b5e747e28471aa92156a04d9f3ab9f45f28e2d704232b93f75846040516106bf919061119c565b60405180910390a250506106d1610fa0565b50565b6106dc610ed0565b6106e533610f1f565b6000600460003373ffffffffffffffffffffffffffffffffffffffff1673ffffffffffffffffffffffffffffffffffffffff168152602001908152602001600020905060008160010154905060008111610774576040517f08c379a000000000000000000000000000000000000000000000000000000000815260040161076b906115da565b60405180910390fd5b600082600101819055507f000000000000000000000000000000000000000000000000000000000000000073ffffffffffffffffffffffffffffffffffffffff1663a9059cbb33836040518363ffffffff1660e01b81526004016107d9929190611428565b6020604051808303816000875af11580156107f8573d6000803e3d6000fd5b505050506040513d601f19601f8201168201806040525081019061081c9190611489565b61085b576040517f08c379a00000000000000000000000000000000000000000000000000000000081526004016108529061156e565b60405180910390fd5b3373ffffffffffffffffffffffffffffffffffffffff167ffc30cddea38e2bf4d6ea7d3f9ed3b6ad7f176419f4963bd81318067a4aee73fe826040516108a1919061119c565b60405180910390a250506108b3610fa0565b565b7f000000000000000000000000000000000000000000000000000000000000000081565b6108e1610fa9565b806002819055507f16bc525116a7ec45cf36d84a97ab6b444a8c5264cc1a9468bfae78613156111581604051610917919061119c565b60405180910390a150565b600080600460008473ffffffffffffffffffffffffffffffffffffffff1673ffffffffffffffffffffffffffffffffffffffff1681526020019081526020016000206000015461097184610e1f565b600460008673ffffffffffffffffffffffffffffffffffffffff1673ffffffffffffffffffffffffffffffffffffffff168152602001908152602001600020600101546109be9190611343565b91509150915091565b61271081565b6109d5610fa9565b6109df6000611027565b565b60035481565b60008060009054906101000a900473ffffffffffffffffffffffffffffffffffffffff16905090565b610a18610fa9565b7f000000000000000000000000000000000000000000000000000000000000000073ffffffffffffffffffffffffffffffffffffffff166323b872dd3330846040518463ffffffff1660e01b8152600401610a75939291906115fa565b6020604051808303816000875af1158015610a94573d6000803e3d6000fd5b505050506040513d601f19601f82011682018060405250810190610ab89190611489565b610af7576040517f08c379a0000000000000000000000000000000000000000000000000000000008152600401610aee90611502565b60405180910390fd5b3373ffffffffffffffffffffffffffffffffffffffff167fd53214ca07be5520e229c395f05a3e5c0697ec6279184ffbe2758d304fd322cc82604051610b3d919061119c565b60405180910390a250565b610b50610ed0565b60008111610b93576040517f08c379a0000000000000000000000000000000000000000000000000000000008152600401610b8a9061167d565b60405180910390fd5b610b9c33610f1f565b7f000000000000000000000000000000000000000000000000000000000000000073ffffffffffffffffffffffffffffffffffffffff166323b872dd3330846040518463ffffffff1660e01b8152600401610bf9939291906115fa565b6020604051808303816000875af1158015610c18573d6000803e3d6000fd5b505050506040513d601f19601f82011682018060405250810190610c3c9190611489565b610c7b576040517f08c379a0000000000000000000000000000000000000000000000000000000008152600401610c7290611502565b60405180910390fd5b80600460003373ffffffffffffffffffffffffffffffffffffffff1673ffffffffffffffffffffffffffffffffffffffff1681526020019081526020016000206000016000828254610ccd9190611343565b925050819055508060036000828254610ce69190611343565b925050819055503373ffffffffffffffffffffffffffffffffffffffff167f9e71bc8eea02a63969f509818f2dafb9254532904319f9dbda79b67bd34a5f3d82604051610d33919061119c565b60405180910390a2610d43610fa0565b50565b60046020528060005260406000206000915090508060000154908060010154908060020154905083565b6301e1338081565b610d80610fa9565b600073ffffffffffffffffffffffffffffffffffffffff168173ffffffffffffffffffffffffffffffffffffffff1603610def576040517f08c379a0000000000000000000000000000000000000000000000000000000008152600401610de69061170f565b60405180910390fd5b610df881611027565b50565b7f000000000000000000000000000000000000000000000000000000000000000081565b600080600460008473ffffffffffffffffffffffffffffffffffffffff1673ffffffffffffffffffffffffffffffffffffffff16815260200190815260200160002090506000816000015403610e79576000915050610ecb565b6000816002015442610e8b91906113f4565b90506301e13380612710610e9f919061172f565b816002548460000154610eb2919061172f565b610ebc919061172f565b610ec691906117a0565b925050505b919050565b600260015403610f15576040517f08c379a0000000000000000000000000000000000000000000000000000000008152600401610f0c9061181d565b60405180910390fd5b6002600181905550565b6000600460008373ffffffffffffffffffffffffffffffffffffffff1673ffffffffffffffffffffffffffffffffffffffff1681526020019081526020016000209050600081600001541115610f9357610f7882610e1f565b816001016000828254610f8b9190611343565b925050819055505b4281600201819055505050565b60018081905550565b610fb16110eb565b73ffffffffffffffffffffffffffffffffffffffff16610fcf6109e7565b73ffffffffffffffffffffffffffffffffffffffff1614611025576040517f08c379a000000000000000000000000000000000000000000000000000000000815260040161101c90611889565b60405180910390fd5b565b60008060009054906101000a900473ffffffffffffffffffffffffffffffffffffffff169050816000806101000a81548173ffffffffffffffffffffffffffffffffffffffff021916908373ffffffffffffffffffffffffffffffffffffffff1602179055508173ffffffffffffffffffffffffffffffffffffffff168173ffffffffffffffffffffffffffffffffffffffff167f8be0079c531659141344cd1fd0a4f28419497f9722a3daafe3b4186f6b6457e060405160405180910390a35050565b600033905090565b600080fd5b600073ffffffffffffffffffffffffffffffffffffffff82169050919050565b6000611123826110f8565b9050919050565b61113381611118565b811461113e57600080fd5b50565b6000813590506111508161112a565b92915050565b60006020828403121561116c5761116b6110f3565b5b600061117a84828501611141565b91505092915050565b6000819050919050565b61119681611183565b82525050565b60006020820190506111b1600083018461118d565b92915050565b6111c081611183565b81146111cb57600080fd5b50565b6000813590506111dd816111b7565b92915050565b6000602082840312156111f9576111f86110f3565b5b6000611207848285016111ce565b91505092915050565b6000819050919050565b600061123561123061122b846110f8565b611210565b6110f8565b9050919050565b60006112478261121a565b9050919050565b60006112598261123c565b9050919050565b6112698161124e565b82525050565b60006020820190506112846000830184611260565b92915050565b600060408201905061129f600083018561118d565b6112ac602083018461118d565b9392505050565b6112bc81611118565b82525050565b60006020820190506112d760008301846112b3565b92915050565b60006060820190506112f2600083018661118d565b6112ff602083018561118d565b61130c604083018461118d565b949350505050565b7f4e487b7100000000000000000000000000000000000000000000000000000000600052601160045260246000fd5b600061134e82611183565b915061135983611183565b925082820190508082111561137157611370611314565b5b92915050565b600082825260208201905092915050565b7f496e76616c696420616d6f756e74000000000000000000000000000000000000600082015250565b60006113be600e83611377565b91506113c982611388565b602082019050919050565b600060208201905081810360008301526113ed816113b1565b9050919050565b60006113ff82611183565b915061140a83611183565b925082820390508181111561142257611421611314565b5b92915050565b600060408201905061143d60008301856112b3565b61144a602083018461118d565b9392505050565b60008115159050919050565b61146681611451565b811461147157600080fd5b50565b6000815190506114838161145d565b92915050565b60006020828403121561149f5761149e6110f3565b5b60006114ad84828501611474565b91505092915050565b7f5472616e73666572206661696c65640000000000000000000000000000000000600082015250565b60006114ec600f83611377565b91506114f7826114b6565b602082019050919050565b6000602082019050818103600083015261151b816114df565b9050919050565b7f526577617264207472616e73666572206661696c656400000000000000000000600082015250565b6000611558601683611377565b915061156382611522565b602082019050919050565b600060208201905081810360008301526115878161154b565b9050919050565b7f4e6f207265776172647320746f20636c61696d00000000000000000000000000600082015250565b60006115c4601383611377565b91506115cf8261158e565b602082019050919050565b600060208201905081810360008301526115f3816115b7565b9050919050565b600060608201905061160f60008301866112b3565b61161c60208301856112b3565b611629604083018461118d565b949350505050565b7f5a65726f20616d6f756e74000000000000000000000000000000000000000000600082015250565b6000611667600b83611377565b915061167282611631565b602082019050919050565b600060208201905081810360008301526116968161165a565b9050919050565b7f4f776e61626c653a206e6577206f776e657220697320746865207a65726f206160008201527f6464726573730000000000000000000000000000000000000000000000000000602082015250565b60006116f9602683611377565b91506117048261169d565b604082019050919050565b60006020820190508181036000830152611728816116ec565b9050919050565b600061173a82611183565b915061174583611183565b925082820261175381611183565b9150828204841483151761176a57611769611314565b5b5092915050565b7f4e487b7100000000000000000000000000000000000000000000000000000000600052601260045260246000fd5b60006117ab82611183565b91506117b683611183565b9250826117c6576117c5611771565b5b828204905092915050565b7f5265656e7472616e637947756172643a207265656e7472616e742063616c6c00600082015250565b6000611807601f83611377565b9150611812826117d1565b602082019050919050565b60006020820190508181036000830152611836816117fa565b9050919050565b7f4f776e61626c653a2063616c6c6572206973206e6f7420746865206f776e6572600082015250565b6000611873602083611377565b915061187e8261183d565b602082019050919050565b600060208201905081810360008301526118a281611866565b905091905056fea26469706673582212202c62171e45592a7f6df6fbb9371b91cec3795c76a8494acdbd178a3966823b8c64736f6c63430008140033",
  "linkReferences": {},
  "deployedLinkReferences": {}
}